{
  "contractName": "NftContract",
  "abi": [
    {
      "inputs": [
        {
          "internalType": "string",
          "name": "_name",
          "type": "string"
        },
        {
          "internalType": "string",
          "name": "_symbol",
          "type": "string"
        },
        {
          "internalType": "address",
          "name": "_marketplace",
          "type": "address"
        }
      ],
      "stateMutability": "nonpayable",
      "type": "constructor"
    },
    {
      "anonymous": false,
      "inputs": [
        {
          "indexed": true,
          "internalType": "address",
          "name": "owner",
          "type": "address"
        },
        {
          "indexed": true,
          "internalType": "address",
          "name": "approved",
          "type": "address"
        },
        {
          "indexed": true,
          "internalType": "uint256",
          "name": "tokenId",
          "type": "uint256"
        }
      ],
      "name": "Approval",
      "type": "event"
    },
    {
      "anonymous": false,
      "inputs": [
        {
          "indexed": true,
          "internalType": "address",
          "name": "owner",
          "type": "address"
        },
        {
          "indexed": true,
          "internalType": "address",
          "name": "operator",
          "type": "address"
        },
        {
          "indexed": false,
          "internalType": "bool",
          "name": "approved",
          "type": "bool"
        }
      ],
      "name": "ApprovalForAll",
      "type": "event"
    },
    {
      "anonymous": false,
      "inputs": [
        {
          "indexed": false,
          "internalType": "address",
          "name": "owner",
          "type": "address"
        },
        {
          "indexed": false,
          "internalType": "uint256",
          "name": "tokenId",
          "type": "uint256"
        },
        {
          "indexed": false,
          "internalType": "uint256",
          "name": "price",
          "type": "uint256"
        },
        {
          "indexed": false,
          "internalType": "string",
          "name": "tokenURI",
          "type": "string"
        }
      ],
      "name": "NFTCreated",
      "type": "event"
    },
    {
      "anonymous": false,
      "inputs": [
        {
          "indexed": true,
          "internalType": "address",
          "name": "previousOwner",
          "type": "address"
        },
        {
          "indexed": true,
          "internalType": "address",
          "name": "newOwner",
          "type": "address"
        }
      ],
      "name": "OwnershipTransferred",
      "type": "event"
    },
    {
      "anonymous": false,
      "inputs": [
        {
          "indexed": true,
          "internalType": "address",
          "name": "from",
          "type": "address"
        },
        {
          "indexed": true,
          "internalType": "address",
          "name": "to",
          "type": "address"
        },
        {
          "indexed": true,
          "internalType": "uint256",
          "name": "tokenId",
          "type": "uint256"
        }
      ],
      "name": "Transfer",
      "type": "event"
    },
    {
      "inputs": [
        {
          "internalType": "uint256",
          "name": "",
          "type": "uint256"
        }
      ],
      "name": "NFTS",
      "outputs": [
        {
          "internalType": "string",
          "name": "tokenURI",
          "type": "string"
        },
        {
          "internalType": "uint256",
          "name": "price",
          "type": "uint256"
        },
        {
          "internalType": "address",
          "name": "owner",
          "type": "address"
        },
        {
          "internalType": "bool",
          "name": "isForSale",
          "type": "bool"
        }
      ],
      "stateMutability": "view",
      "type": "function"
    },
    {
      "inputs": [
        {
          "internalType": "address",
          "name": "to",
          "type": "address"
        },
        {
          "internalType": "uint256",
          "name": "tokenId",
          "type": "uint256"
        }
      ],
      "name": "approve",
      "outputs": [],
      "stateMutability": "nonpayable",
      "type": "function"
    },
    {
      "inputs": [
        {
          "internalType": "address",
          "name": "owner",
          "type": "address"
        }
      ],
      "name": "balanceOf",
      "outputs": [
        {
          "internalType": "uint256",
          "name": "",
          "type": "uint256"
        }
      ],
      "stateMutability": "view",
      "type": "function"
    },
    {
      "inputs": [
        {
          "internalType": "uint256",
          "name": "tokenId",
          "type": "uint256"
        }
      ],
      "name": "getApproved",
      "outputs": [
        {
          "internalType": "address",
          "name": "",
          "type": "address"
        }
      ],
      "stateMutability": "view",
      "type": "function"
    },
    {
      "inputs": [
        {
          "internalType": "string",
          "name": "",
          "type": "string"
        }
      ],
      "name": "ipfsHashes",
      "outputs": [
        {
          "internalType": "bool",
          "name": "",
          "type": "bool"
        }
      ],
      "stateMutability": "view",
      "type": "function"
    },
    {
      "inputs": [
        {
          "internalType": "address",
          "name": "owner",
          "type": "address"
        },
        {
          "internalType": "address",
          "name": "operator",
          "type": "address"
        }
      ],
      "name": "isApprovedForAll",
      "outputs": [
        {
          "internalType": "bool",
          "name": "",
          "type": "bool"
        }
      ],
      "stateMutability": "view",
      "type": "function"
    },
    {
      "inputs": [],
      "name": "name",
      "outputs": [
        {
          "internalType": "string",
          "name": "",
          "type": "string"
        }
      ],
      "stateMutability": "view",
      "type": "function"
    },
    {
      "inputs": [],
      "name": "nftId",
      "outputs": [
        {
          "internalType": "uint256",
          "name": "_value",
          "type": "uint256"
        }
      ],
      "stateMutability": "view",
      "type": "function"
    },
    {
      "inputs": [],
      "name": "owner",
      "outputs": [
        {
          "internalType": "address",
          "name": "",
          "type": "address"
        }
      ],
      "stateMutability": "view",
      "type": "function"
    },
    {
      "inputs": [
        {
          "internalType": "uint256",
          "name": "tokenId",
          "type": "uint256"
        }
      ],
      "name": "ownerOf",
      "outputs": [
        {
          "internalType": "address",
          "name": "",
          "type": "address"
        }
      ],
      "stateMutability": "view",
      "type": "function"
    },
    {
      "inputs": [],
      "name": "renounceOwnership",
      "outputs": [],
      "stateMutability": "nonpayable",
      "type": "function"
    },
    {
      "inputs": [
        {
          "internalType": "address",
          "name": "from",
          "type": "address"
        },
        {
          "internalType": "address",
          "name": "to",
          "type": "address"
        },
        {
          "internalType": "uint256",
          "name": "tokenId",
          "type": "uint256"
        }
      ],
      "name": "safeTransferFrom",
      "outputs": [],
      "stateMutability": "nonpayable",
      "type": "function"
    },
    {
      "inputs": [
        {
          "internalType": "address",
          "name": "from",
          "type": "address"
        },
        {
          "internalType": "address",
          "name": "to",
          "type": "address"
        },
        {
          "internalType": "uint256",
          "name": "tokenId",
          "type": "uint256"
        },
        {
          "internalType": "bytes",
          "name": "_data",
          "type": "bytes"
        }
      ],
      "name": "safeTransferFrom",
      "outputs": [],
      "stateMutability": "nonpayable",
      "type": "function"
    },
    {
      "inputs": [
        {
          "internalType": "address",
          "name": "operator",
          "type": "address"
        },
        {
          "internalType": "bool",
          "name": "approved",
          "type": "bool"
        }
      ],
      "name": "setApprovalForAll",
      "outputs": [],
      "stateMutability": "nonpayable",
      "type": "function"
    },
    {
      "inputs": [
        {
          "internalType": "bytes4",
          "name": "interfaceId",
          "type": "bytes4"
        }
      ],
      "name": "supportsInterface",
      "outputs": [
        {
          "internalType": "bool",
          "name": "",
          "type": "bool"
        }
      ],
      "stateMutability": "view",
      "type": "function"
    },
    {
      "inputs": [],
      "name": "symbol",
      "outputs": [
        {
          "internalType": "string",
          "name": "",
          "type": "string"
        }
      ],
      "stateMutability": "view",
      "type": "function"
    },
    {
      "inputs": [
        {
          "internalType": "uint256",
          "name": "tokenId",
          "type": "uint256"
        }
      ],
      "name": "tokenURI",
      "outputs": [
        {
          "internalType": "string",
          "name": "",
          "type": "string"
        }
      ],
      "stateMutability": "view",
      "type": "function"
    },
    {
      "inputs": [
        {
          "internalType": "address",
          "name": "from",
          "type": "address"
        },
        {
          "internalType": "address",
          "name": "to",
          "type": "address"
        },
        {
          "internalType": "uint256",
          "name": "tokenId",
          "type": "uint256"
        }
      ],
      "name": "transferFrom",
      "outputs": [],
      "stateMutability": "nonpayable",
      "type": "function"
    },
    {
      "inputs": [
        {
          "internalType": "address",
          "name": "newOwner",
          "type": "address"
        }
      ],
      "name": "transferOwnership",
      "outputs": [],
      "stateMutability": "nonpayable",
      "type": "function"
    },
    {
      "inputs": [
        {
          "internalType": "uint256",
          "name": "_nftId",
          "type": "uint256"
        },
        {
          "internalType": "uint256",
          "name": "_amount",
          "type": "uint256"
        }
      ],
      "name": "setPrice",
      "outputs": [],
      "stateMutability": "nonpayable",
      "type": "function"
    },
    {
      "inputs": [
        {
          "internalType": "uint256",
          "name": "_nftId",
          "type": "uint256"
        },
        {
          "internalType": "bool",
          "name": "_status",
          "type": "bool"
        }
      ],
      "name": "updateOnSale",
      "outputs": [],
      "stateMutability": "nonpayable",
      "type": "function"
    },
    {
      "inputs": [
        {
          "internalType": "string",
          "name": "_tokenURI",
          "type": "string"
        },
        {
          "internalType": "uint256",
          "name": "_priceBase",
          "type": "uint256"
        }
      ],
      "name": "mintNFT",
      "outputs": [
        {
          "internalType": "uint256",
          "name": "tokenId",
          "type": "uint256"
        },
        {
          "internalType": "string",
          "name": "tokenURI",
          "type": "string"
        }
      ],
      "stateMutability": "nonpayable",
      "type": "function"
    },
    {
      "inputs": [
        {
          "internalType": "uint256",
          "name": "_assetId",
          "type": "uint256"
        }
      ],
      "name": "getPrice",
      "outputs": [
        {
          "internalType": "uint256",
          "name": "price",
          "type": "uint256"
        }
      ],
      "stateMutability": "view",
      "type": "function"
    },
    {
      "inputs": [
        {
          "internalType": "uint256",
          "name": "_assetId",
          "type": "uint256"
        }
      ],
      "name": "getOnSale",
      "outputs": [
        {
          "internalType": "bool",
          "name": "isForSale",
          "type": "bool"
        }
      ],
      "stateMutability": "view",
      "type": "function"
    }
  ],
  "bytecode": "0x60806040523480156200001157600080fd5b5060405162003e2238038062003e228339818101604052810190620000379190620002e4565b8282816000908051906020019062000051929190620001ab565b5080600190805190602001906200006a929190620001ab565b50505060006200007f620001a360201b60201c565b905080600760006101000a81548173ffffffffffffffffffffffffffffffffffffffff021916908373ffffffffffffffffffffffffffffffffffffffff1602179055508073ffffffffffffffffffffffffffffffffffffffff16600073ffffffffffffffffffffffffffffffffffffffff167f8be0079c531659141344cd1fd0a4f28419497f9722a3daafe3b4186f6b6457e060405160405180910390a350600073ffffffffffffffffffffffffffffffffffffffff168173ffffffffffffffffffffffffffffffffffffffff1614156200015957600080fd5b80600860006101000a81548173ffffffffffffffffffffffffffffffffffffffff021916908373ffffffffffffffffffffffffffffffffffffffff1602179055505050506200052a565b600033905090565b828054620001b99062000435565b90600052602060002090601f016020900481019282620001dd576000855562000229565b82601f10620001f857805160ff191683800117855562000229565b8280016001018555821562000229579182015b82811115620002285782518255916020019190600101906200020b565b5b5090506200023891906200023c565b5090565b5b80821115620002575760008160009055506001016200023d565b5090565b6000620002726200026c8462000395565b6200036c565b9050828152602081018484840111156200028b57600080fd5b62000298848285620003ff565b509392505050565b600081519050620002b18162000510565b92915050565b600082601f830112620002c957600080fd5b8151620002db8482602086016200025b565b91505092915050565b600080600060608486031215620002fa57600080fd5b600084015167ffffffffffffffff8111156200031557600080fd5b6200032386828701620002b7565b935050602084015167ffffffffffffffff8111156200034157600080fd5b6200034f86828701620002b7565b92505060406200036286828701620002a0565b9150509250925092565b6000620003786200038b565b90506200038682826200046b565b919050565b6000604051905090565b600067ffffffffffffffff821115620003b357620003b2620004d0565b5b620003be82620004ff565b9050602081019050919050565b6000620003d882620003df565b9050919050565b600073ffffffffffffffffffffffffffffffffffffffff82169050919050565b60005b838110156200041f57808201518184015260208101905062000402565b838111156200042f576000848401525b50505050565b600060028204905060018216806200044e57607f821691505b60208210811415620004655762000464620004a1565b5b50919050565b6200047682620004ff565b810181811067ffffffffffffffff82111715620004985762000497620004d0565b5b80604052505050565b7f4e487b7100000000000000000000000000000000000000000000000000000000600052602260045260246000fd5b7f4e487b7100000000000000000000000000000000000000000000000000000000600052604160045260246000fd5b6000601f19601f8301169050919050565b6200051b81620003cb565b81146200052757600080fd5b50565b6138e8806200053a6000396000f3fe608060405234801561001057600080fd5b50600436106101585760003560e01c806395d89b41116100c3578063c87b56dd1161007c578063c87b56dd146103d8578063c9b6b48514610408578063e75722301461043b578063e985e9c51461046b578063f2fde38b1461049b578063f7d97577146104b757610158565b806395d89b4114610304578063a22cb46514610322578063b5b9cd951461033e578063b88d4fde1461036e578063b9e61c201461038a578063c6bc5182146103ba57610158565b806343d5bef71161011557806343d5bef71461022f5780635afa3a721461024b5780636352211e1461027c57806370a08231146102ac578063715018a6146102dc5780638da5cb5b146102e657610158565b806301ffc9a71461015d57806306fdde031461018d578063081812fc146101ab578063095ea7b3146101db57806323b872dd146101f757806342842e0e14610213575b600080fd5b61017760048036038101906101729190612567565b6104d3565b6040516101849190612b8c565b60405180910390f35b6101956105b5565b6040516101a29190612ba7565b60405180910390f35b6101c560048036038101906101c0919061264e565b610647565b6040516101d29190612ad9565b60405180910390f35b6101f560048036038101906101f0919061252b565b6106cc565b005b610211600480360381019061020c9190612425565b6107e4565b005b61022d60048036038101906102289190612425565b610844565b005b61024960048036038101906102449190612677565b610864565b005b610265600480360381019061026091906125fa565b610906565b604051610273929190612ed0565b60405180910390f35b6102966004803603810190610291919061264e565b610b09565b6040516102a39190612ad9565b60405180910390f35b6102c660048036038101906102c191906123c0565b610bbb565b6040516102d39190612eb5565b60405180910390f35b6102e4610c73565b005b6102ee610db0565b6040516102fb9190612ad9565b60405180910390f35b61030c610dda565b6040516103199190612ba7565b60405180910390f35b61033c600480360381019061033791906124ef565b610e6c565b005b610358600480360381019061035391906125b9565b610fed565b6040516103659190612b8c565b60405180910390f35b61038860048036038101906103839190612474565b611023565b005b6103a4600480360381019061039f919061264e565b611085565b6040516103b19190612b8c565b60405180910390f35b6103c26110b2565b6040516103cf9190612eb5565b60405180910390f35b6103f260048036038101906103ed919061264e565b6110be565b6040516103ff9190612ba7565b60405180910390f35b610422600480360381019061041d919061264e565b611210565b6040516104329493929190612bc9565b60405180910390f35b6104556004803603810190610450919061264e565b6112f5565b6040516104629190612eb5565b60405180910390f35b610485600480360381019061048091906123e9565b611315565b6040516104929190612b8c565b60405180910390f35b6104b560048036038101906104b091906123c0565b6113a9565b005b6104d160048036038101906104cc91906126b3565b611555565b005b60007f80ac58cd000000000000000000000000000000000000000000000000000000007bffffffffffffffffffffffffffffffffffffffffffffffffffffffff1916827bffffffffffffffffffffffffffffffffffffffffffffffffffffffff1916148061059e57507f5b5e139f000000000000000000000000000000000000000000000000000000007bffffffffffffffffffffffffffffffffffffffffffffffffffffffff1916827bffffffffffffffffffffffffffffffffffffffffffffffffffffffff1916145b806105ae57506105ad826115be565b5b9050919050565b6060600080546105c49061313b565b80601f01602080910402602001604051908101604052809291908181526020018280546105f09061313b565b801561063d5780601f106106125761010080835404028352916020019161063d565b820191906000526020600020905b81548152906001019060200180831161062057829003601f168201915b5050505050905090565b600061065282611628565b610691576040517f08c379a000000000000000000000000000000000000000000000000000000000815260040161068890612df5565b60405180910390fd5b6004600083815260200190815260200160002060009054906101000a900473ffffffffffffffffffffffffffffffffffffffff169050919050565b60006106d782610b09565b90508073ffffffffffffffffffffffffffffffffffffffff168373ffffffffffffffffffffffffffffffffffffffff161415610748576040517f08c379a000000000000000000000000000000000000000000000000000000000815260040161073f90612e75565b60405180910390fd5b8073ffffffffffffffffffffffffffffffffffffffff16610767611694565b73ffffffffffffffffffffffffffffffffffffffff161480610796575061079581610790611694565b611315565b5b6107d5576040517f08c379a00000000000000000000000000000000000000000000000000000000081526004016107cc90612d15565b60405180910390fd5b6107df838361169c565b505050565b6107f56107ef611694565b82611755565b610834576040517f08c379a000000000000000000000000000000000000000000000000000000000815260040161082b90612e95565b60405180910390fd5b61083f838383611833565b505050565b61085f83838360405180602001604052806000815250611023565b505050565b80151515600b600084815260200190815260200160002060020160149054906101000a900460ff161515146108ce576040517f08c379a00000000000000000000000000000000000000000000000000000000081526004016108c590612d35565b60405180910390fd5b6000600b60008481526020019081526020016000209050818160020160146101000a81548160ff021916908315150217905550505050565b6000606060011515600a8560405161091e9190612a9e565b908152602001604051809103902060009054906101000a900460ff161515141561097d576040517f08c379a000000000000000000000000000000000000000000000000000000000815260040161097490612cb5565b60405180910390fd5b6109876009611a8f565b60006109936009611aa5565b905061099f3382611ab3565b6109a98186611ad1565b6001600a866040516109bb9190612a9e565b908152602001604051809103902060006101000a81548160ff02191690831515021790555060405180608001604052808681526020018581526020013373ffffffffffffffffffffffffffffffffffffffff16815260200160011515815250600b60008381526020019081526020016000206000820151816000019080519060200190610a499291906121e4565b506020820151816001015560408201518160020160006101000a81548173ffffffffffffffffffffffffffffffffffffffff021916908373ffffffffffffffffffffffffffffffffffffffff16021790555060608201518160020160146101000a81548160ff0219169083151502179055509050507f17d43dd9ef45113fc50b612cdd48849fdc562e1dfc8e35a69e075102816c5ec633828688604051610af39493929190612b40565b60405180910390a1808592509250509250929050565b6000806002600084815260200190815260200160002060009054906101000a900473ffffffffffffffffffffffffffffffffffffffff169050600073ffffffffffffffffffffffffffffffffffffffff168173ffffffffffffffffffffffffffffffffffffffff161415610bb2576040517f08c379a0000000000000000000000000000000000000000000000000000000008152600401610ba990612d75565b60405180910390fd5b80915050919050565b60008073ffffffffffffffffffffffffffffffffffffffff168273ffffffffffffffffffffffffffffffffffffffff161415610c2c576040517f08c379a0000000000000000000000000000000000000000000000000000000008152600401610c2390612d55565b60405180910390fd5b600360008373ffffffffffffffffffffffffffffffffffffffff1673ffffffffffffffffffffffffffffffffffffffff168152602001908152602001600020549050919050565b610c7b611694565b73ffffffffffffffffffffffffffffffffffffffff16610c99610db0565b73ffffffffffffffffffffffffffffffffffffffff1614610cef576040517f08c379a0000000000000000000000000000000000000000000000000000000008152600401610ce690612e15565b60405180910390fd5b600073ffffffffffffffffffffffffffffffffffffffff16600760009054906101000a900473ffffffffffffffffffffffffffffffffffffffff1673ffffffffffffffffffffffffffffffffffffffff167f8be0079c531659141344cd1fd0a4f28419497f9722a3daafe3b4186f6b6457e060405160405180910390a36000600760006101000a81548173ffffffffffffffffffffffffffffffffffffffff021916908373ffffffffffffffffffffffffffffffffffffffff160217905550565b6000600760009054906101000a900473ffffffffffffffffffffffffffffffffffffffff16905090565b606060018054610de99061313b565b80601f0160208091040260200160405190810160405280929190818152602001828054610e159061313b565b8015610e625780601f10610e3757610100808354040283529160200191610e62565b820191906000526020600020905b815481529060010190602001808311610e4557829003601f168201915b5050505050905090565b610e74611694565b73ffffffffffffffffffffffffffffffffffffffff168273ffffffffffffffffffffffffffffffffffffffff161415610ee2576040517f08c379a0000000000000000000000000000000000000000000000000000000008152600401610ed990612c95565b60405180910390fd5b8060056000610eef611694565b73ffffffffffffffffffffffffffffffffffffffff1673ffffffffffffffffffffffffffffffffffffffff16815260200190815260200160002060008473ffffffffffffffffffffffffffffffffffffffff1673ffffffffffffffffffffffffffffffffffffffff16815260200190815260200160002060006101000a81548160ff0219169083151502179055508173ffffffffffffffffffffffffffffffffffffffff16610f9c611694565b73ffffffffffffffffffffffffffffffffffffffff167f17307eab39ab6107e8899845ad3d59bd9653f200f220920489ca2b5937696c3183604051610fe19190612b8c565b60405180910390a35050565b600a818051602081018201805184825260208301602085012081835280955050505050506000915054906101000a900460ff1681565b61103461102e611694565b83611755565b611073576040517f08c379a000000000000000000000000000000000000000000000000000000000815260040161106a90612e95565b60405180910390fd5b61107f84848484611b45565b50505050565b6000600b600083815260200190815260200160002060020160149054906101000a900460ff169050919050565b60098060000154905081565b60606110c982611628565b611108576040517f08c379a00000000000000000000000000000000000000000000000000000000081526004016110ff90612dd5565b60405180910390fd5b60006006600084815260200190815260200160002080546111289061313b565b80601f01602080910402602001604051908101604052809291908181526020018280546111549061313b565b80156111a15780601f10611176576101008083540402835291602001916111a1565b820191906000526020600020905b81548152906001019060200180831161118457829003601f168201915b5050505050905060006111b2611ba1565b90506000815114156111c857819250505061120b565b6000825111156111fd5780826040516020016111e5929190612ab5565b6040516020818303038152906040529250505061120b565b61120684611bb8565b925050505b919050565b600b6020528060005260406000206000915090508060000180546112339061313b565b80601f016020809104026020016040519081016040528092919081815260200182805461125f9061313b565b80156112ac5780601f10611281576101008083540402835291602001916112ac565b820191906000526020600020905b81548152906001019060200180831161128f57829003601f168201915b5050505050908060010154908060020160009054906101000a900473ffffffffffffffffffffffffffffffffffffffff16908060020160149054906101000a900460ff16905084565b6000600b6000838152602001908152602001600020600101549050919050565b6000600560008473ffffffffffffffffffffffffffffffffffffffff1673ffffffffffffffffffffffffffffffffffffffff16815260200190815260200160002060008373ffffffffffffffffffffffffffffffffffffffff1673ffffffffffffffffffffffffffffffffffffffff16815260200190815260200160002060009054906101000a900460ff16905092915050565b6113b1611694565b73ffffffffffffffffffffffffffffffffffffffff166113cf610db0565b73ffffffffffffffffffffffffffffffffffffffff1614611425576040517f08c379a000000000000000000000000000000000000000000000000000000000815260040161141c90612e15565b60405180910390fd5b600073ffffffffffffffffffffffffffffffffffffffff168173ffffffffffffffffffffffffffffffffffffffff161415611495576040517f08c379a000000000000000000000000000000000000000000000000000000000815260040161148c90612c35565b60405180910390fd5b8073ffffffffffffffffffffffffffffffffffffffff16600760009054906101000a900473ffffffffffffffffffffffffffffffffffffffff1673ffffffffffffffffffffffffffffffffffffffff167f8be0079c531659141344cd1fd0a4f28419497f9722a3daafe3b4186f6b6457e060405160405180910390a380600760006101000a81548173ffffffffffffffffffffffffffffffffffffffff021916908373ffffffffffffffffffffffffffffffffffffffff16021790555050565b6000811015611599576040517f08c379a000000000000000000000000000000000000000000000000000000000815260040161159090612cf5565b60405180910390fd5b6000600b60008481526020019081526020016000209050818160010181905550505050565b60007f01ffc9a7000000000000000000000000000000000000000000000000000000007bffffffffffffffffffffffffffffffffffffffffffffffffffffffff1916827bffffffffffffffffffffffffffffffffffffffffffffffffffffffff1916149050919050565b60008073ffffffffffffffffffffffffffffffffffffffff166002600084815260200190815260200160002060009054906101000a900473ffffffffffffffffffffffffffffffffffffffff1673ffffffffffffffffffffffffffffffffffffffff1614159050919050565b600033905090565b816004600083815260200190815260200160002060006101000a81548173ffffffffffffffffffffffffffffffffffffffff021916908373ffffffffffffffffffffffffffffffffffffffff160217905550808273ffffffffffffffffffffffffffffffffffffffff1661170f83610b09565b73ffffffffffffffffffffffffffffffffffffffff167f8c5be1e5ebec7d5bd14f71427d1e84f3dd0314c0f7b2291e5b200ac8c7c3b92560405160405180910390a45050565b600061176082611628565b61179f576040517f08c379a000000000000000000000000000000000000000000000000000000000815260040161179690612cd5565b60405180910390fd5b60006117aa83610b09565b90508073ffffffffffffffffffffffffffffffffffffffff168473ffffffffffffffffffffffffffffffffffffffff16148061181957508373ffffffffffffffffffffffffffffffffffffffff1661180184610647565b73ffffffffffffffffffffffffffffffffffffffff16145b8061182a57506118298185611315565b5b91505092915050565b8273ffffffffffffffffffffffffffffffffffffffff1661185382610b09565b73ffffffffffffffffffffffffffffffffffffffff16146118a9576040517f08c379a00000000000000000000000000000000000000000000000000000000081526004016118a090612e35565b60405180910390fd5b600073ffffffffffffffffffffffffffffffffffffffff168273ffffffffffffffffffffffffffffffffffffffff161415611919576040517f08c379a000000000000000000000000000000000000000000000000000000000815260040161191090612c75565b60405180910390fd5b611924838383611c5f565b61192f60008261169c565b6001600360008573ffffffffffffffffffffffffffffffffffffffff1673ffffffffffffffffffffffffffffffffffffffff168152602001908152602001600020600082825461197f9190613051565b925050819055506001600360008473ffffffffffffffffffffffffffffffffffffffff1673ffffffffffffffffffffffffffffffffffffffff16815260200190815260200160002060008282546119d69190612fca565b92505081905550816002600083815260200190815260200160002060006101000a81548173ffffffffffffffffffffffffffffffffffffffff021916908373ffffffffffffffffffffffffffffffffffffffff160217905550808273ffffffffffffffffffffffffffffffffffffffff168473ffffffffffffffffffffffffffffffffffffffff167fddf252ad1be2c89b69c2b068fc378daa952ba7f163c4a11628f55a4df523b3ef60405160405180910390a4505050565b6001816000016000828254019250508190555050565b600081600001549050919050565b611acd828260405180602001604052806000815250611c64565b5050565b611ada82611628565b611b19576040517f08c379a0000000000000000000000000000000000000000000000000000000008152600401611b1090612d95565b60405180910390fd5b80600660008481526020019081526020016000209080519060200190611b409291906121e4565b505050565b611b50848484611833565b611b5c84848484611cbf565b611b9b576040517f08c379a0000000000000000000000000000000000000000000000000000000008152600401611b9290612c15565b60405180910390fd5b50505050565b606060405180602001604052806000815250905090565b6060611bc382611628565b611c02576040517f08c379a0000000000000000000000000000000000000000000000000000000008152600401611bf990612e55565b60405180910390fd5b6000611c0c611ba1565b90506000815111611c2c5760405180602001604052806000815250611c57565b80611c3684611e56565b604051602001611c47929190612ab5565b6040516020818303038152906040525b915050919050565b505050565b611c6e8383612003565b611c7b6000848484611cbf565b611cba576040517f08c379a0000000000000000000000000000000000000000000000000000000008152600401611cb190612c15565b60405180910390fd5b505050565b6000611ce08473ffffffffffffffffffffffffffffffffffffffff166121d1565b15611e49578373ffffffffffffffffffffffffffffffffffffffff1663150b7a02611d09611694565b8786866040518563ffffffff1660e01b8152600401611d2b9493929190612af4565b602060405180830381600087803b158015611d4557600080fd5b505af1925050508015611d7657506040513d601f19601f82011682018060405250810190611d739190612590565b60015b611df9573d8060008114611da6576040519150601f19603f3d011682016040523d82523d6000602084013e611dab565b606091505b50600081511415611df1576040517f08c379a0000000000000000000000000000000000000000000000000000000008152600401611de890612c15565b60405180910390fd5b805181602001fd5b63150b7a0260e01b7bffffffffffffffffffffffffffffffffffffffffffffffffffffffff1916817bffffffffffffffffffffffffffffffffffffffffffffffffffffffff191614915050611e4e565b600190505b949350505050565b60606000821415611e9e576040518060400160405280600181526020017f30000000000000000000000000000000000000000000000000000000000000008152509050611ffe565b600082905060005b60008214611ed0578080611eb99061319e565b915050600a82611ec99190613020565b9150611ea6565b60008167ffffffffffffffff811115611f12577f4e487b7100000000000000000000000000000000000000000000000000000000600052604160045260246000fd5b6040519080825280601f01601f191660200182016040528015611f445781602001600182028036833780820191505090505b5090505b60008514611ff757600182611f5d9190613051565b9150600a85611f6c91906131e7565b6030611f789190612fca565b60f81b818381518110611fb4577f4e487b7100000000000000000000000000000000000000000000000000000000600052603260045260246000fd5b60200101907effffffffffffffffffffffffffffffffffffffffffffffffffffffffffffff1916908160001a905350600a85611ff09190613020565b9450611f48565b8093505050505b919050565b600073ffffffffffffffffffffffffffffffffffffffff168273ffffffffffffffffffffffffffffffffffffffff161415612073576040517f08c379a000000000000000000000000000000000000000000000000000000000815260040161206a90612db5565b60405180910390fd5b61207c81611628565b156120bc576040517f08c379a00000000000000000000000000000000000000000000000000000000081526004016120b390612c55565b60405180910390fd5b6120c860008383611c5f565b6001600360008473ffffffffffffffffffffffffffffffffffffffff1673ffffffffffffffffffffffffffffffffffffffff16815260200190815260200160002060008282546121189190612fca565b92505081905550816002600083815260200190815260200160002060006101000a81548173ffffffffffffffffffffffffffffffffffffffff021916908373ffffffffffffffffffffffffffffffffffffffff160217905550808273ffffffffffffffffffffffffffffffffffffffff16600073ffffffffffffffffffffffffffffffffffffffff167fddf252ad1be2c89b69c2b068fc378daa952ba7f163c4a11628f55a4df523b3ef60405160405180910390a45050565b600080823b905060008111915050919050565b8280546121f09061313b565b90600052602060002090601f0160209004810192826122125760008555612259565b82601f1061222b57805160ff1916838001178555612259565b82800160010185558215612259579182015b8281111561225857825182559160200191906001019061223d565b5b509050612266919061226a565b5090565b5b8082111561228357600081600090555060010161226b565b5090565b600061229a61229584612f25565b612f00565b9050828152602081018484840111156122b257600080fd5b6122bd8482856130f9565b509392505050565b60006122d86122d384612f56565b612f00565b9050828152602081018484840111156122f057600080fd5b6122fb8482856130f9565b509392505050565b60008135905061231281613856565b92915050565b6000813590506123278161386d565b92915050565b60008135905061233c81613884565b92915050565b60008151905061235181613884565b92915050565b600082601f83011261236857600080fd5b8135612378848260208601612287565b91505092915050565b600082601f83011261239257600080fd5b81356123a28482602086016122c5565b91505092915050565b6000813590506123ba8161389b565b92915050565b6000602082840312156123d257600080fd5b60006123e084828501612303565b91505092915050565b600080604083850312156123fc57600080fd5b600061240a85828601612303565b925050602061241b85828601612303565b9150509250929050565b60008060006060848603121561243a57600080fd5b600061244886828701612303565b935050602061245986828701612303565b925050604061246a868287016123ab565b9150509250925092565b6000806000806080858703121561248a57600080fd5b600061249887828801612303565b94505060206124a987828801612303565b93505060406124ba878288016123ab565b925050606085013567ffffffffffffffff8111156124d757600080fd5b6124e387828801612357565b91505092959194509250565b6000806040838503121561250257600080fd5b600061251085828601612303565b925050602061252185828601612318565b9150509250929050565b6000806040838503121561253e57600080fd5b600061254c85828601612303565b925050602061255d858286016123ab565b9150509250929050565b60006020828403121561257957600080fd5b60006125878482850161232d565b91505092915050565b6000602082840312156125a257600080fd5b60006125b084828501612342565b91505092915050565b6000602082840312156125cb57600080fd5b600082013567ffffffffffffffff8111156125e557600080fd5b6125f184828501612381565b91505092915050565b6000806040838503121561260d57600080fd5b600083013567ffffffffffffffff81111561262757600080fd5b61263385828601612381565b9250506020612644858286016123ab565b9150509250929050565b60006020828403121561266057600080fd5b600061266e848285016123ab565b91505092915050565b6000806040838503121561268a57600080fd5b6000612698858286016123ab565b92505060206126a985828601612318565b9150509250929050565b600080604083850312156126c657600080fd5b60006126d4858286016123ab565b92505060206126e5858286016123ab565b9150509250929050565b6126f881613085565b82525050565b61270781613097565b82525050565b600061271882612f87565b6127228185612f9d565b9350612732818560208601613108565b61273b816132d4565b840191505092915050565b600061275182612f92565b61275b8185612fae565b935061276b818560208601613108565b612774816132d4565b840191505092915050565b600061278a82612f92565b6127948185612fbf565b93506127a4818560208601613108565b80840191505092915050565b60006127bd603283612fae565b91506127c8826132e5565b604082019050919050565b60006127e0602683612fae565b91506127eb82613334565b604082019050919050565b6000612803601c83612fae565b915061280e82613383565b602082019050919050565b6000612826602483612fae565b9150612831826133ac565b604082019050919050565b6000612849601983612fae565b9150612854826133fb565b602082019050919050565b600061286c601283612fae565b915061287782613424565b602082019050919050565b600061288f602c83612fae565b915061289a8261344d565b604082019050919050565b60006128b2601f83612fae565b91506128bd8261349c565b602082019050919050565b60006128d5603883612fae565b91506128e0826134c5565b604082019050919050565b60006128f8600f83612fae565b915061290382613514565b602082019050919050565b600061291b602a83612fae565b91506129268261353d565b604082019050919050565b600061293e602983612fae565b91506129498261358c565b604082019050919050565b6000612961602e83612fae565b915061296c826135db565b604082019050919050565b6000612984602083612fae565b915061298f8261362a565b602082019050919050565b60006129a7603183612fae565b91506129b282613653565b604082019050919050565b60006129ca602c83612fae565b91506129d5826136a2565b604082019050919050565b60006129ed602083612fae565b91506129f8826136f1565b602082019050919050565b6000612a10602983612fae565b9150612a1b8261371a565b604082019050919050565b6000612a33602f83612fae565b9150612a3e82613769565b604082019050919050565b6000612a56602183612fae565b9150612a61826137b8565b604082019050919050565b6000612a79603183612fae565b9150612a8482613807565b604082019050919050565b612a98816130ef565b82525050565b6000612aaa828461277f565b915081905092915050565b6000612ac1828561277f565b9150612acd828461277f565b91508190509392505050565b6000602082019050612aee60008301846126ef565b92915050565b6000608082019050612b0960008301876126ef565b612b1660208301866126ef565b612b236040830185612a8f565b8181036060830152612b35818461270d565b905095945050505050565b6000608082019050612b5560008301876126ef565b612b626020830186612a8f565b612b6f6040830185612a8f565b8181036060830152612b818184612746565b905095945050505050565b6000602082019050612ba160008301846126fe565b92915050565b60006020820190508181036000830152612bc18184612746565b905092915050565b60006080820190508181036000830152612be38187612746565b9050612bf26020830186612a8f565b612bff60408301856126ef565b612c0c60608301846126fe565b95945050505050565b60006020820190508181036000830152612c2e816127b0565b9050919050565b60006020820190508181036000830152612c4e816127d3565b9050919050565b60006020820190508181036000830152612c6e816127f6565b9050919050565b60006020820190508181036000830152612c8e81612819565b9050919050565b60006020820190508181036000830152612cae8161283c565b9050919050565b60006020820190508181036000830152612cce8161285f565b9050919050565b60006020820190508181036000830152612cee81612882565b9050919050565b60006020820190508181036000830152612d0e816128a5565b9050919050565b60006020820190508181036000830152612d2e816128c8565b9050919050565b60006020820190508181036000830152612d4e816128eb565b9050919050565b60006020820190508181036000830152612d6e8161290e565b9050919050565b60006020820190508181036000830152612d8e81612931565b9050919050565b60006020820190508181036000830152612dae81612954565b9050919050565b60006020820190508181036000830152612dce81612977565b9050919050565b60006020820190508181036000830152612dee8161299a565b9050919050565b60006020820190508181036000830152612e0e816129bd565b9050919050565b60006020820190508181036000830152612e2e816129e0565b9050919050565b60006020820190508181036000830152612e4e81612a03565b9050919050565b60006020820190508181036000830152612e6e81612a26565b9050919050565b60006020820190508181036000830152612e8e81612a49565b9050919050565b60006020820190508181036000830152612eae81612a6c565b9050919050565b6000602082019050612eca6000830184612a8f565b92915050565b6000604082019050612ee56000830185612a8f565b8181036020830152612ef78184612746565b90509392505050565b6000612f0a612f1b565b9050612f16828261316d565b919050565b6000604051905090565b600067ffffffffffffffff821115612f4057612f3f6132a5565b5b612f49826132d4565b9050602081019050919050565b600067ffffffffffffffff821115612f7157612f706132a5565b5b612f7a826132d4565b9050602081019050919050565b600081519050919050565b600081519050919050565b600082825260208201905092915050565b600082825260208201905092915050565b600081905092915050565b6000612fd5826130ef565b9150612fe0836130ef565b9250827fffffffffffffffffffffffffffffffffffffffffffffffffffffffffffffffff0382111561301557613014613218565b5b828201905092915050565b600061302b826130ef565b9150613036836130ef565b92508261304657613045613247565b5b828204905092915050565b600061305c826130ef565b9150613067836130ef565b92508282101561307a57613079613218565b5b828203905092915050565b6000613090826130cf565b9050919050565b60008115159050919050565b60007fffffffff0000000000000000000000000000000000000000000000000000000082169050919050565b600073ffffffffffffffffffffffffffffffffffffffff82169050919050565b6000819050919050565b82818337600083830152505050565b60005b8381101561312657808201518184015260208101905061310b565b83811115613135576000848401525b50505050565b6000600282049050600182168061315357607f821691505b6020821081141561316757613166613276565b5b50919050565b613176826132d4565b810181811067ffffffffffffffff82111715613195576131946132a5565b5b80604052505050565b60006131a9826130ef565b91507fffffffffffffffffffffffffffffffffffffffffffffffffffffffffffffffff8214156131dc576131db613218565b5b600182019050919050565b60006131f2826130ef565b91506131fd836130ef565b92508261320d5761320c613247565b5b828206905092915050565b7f4e487b7100000000000000000000000000000000000000000000000000000000600052601160045260246000fd5b7f4e487b7100000000000000000000000000000000000000000000000000000000600052601260045260246000fd5b7f4e487b7100000000000000000000000000000000000000000000000000000000600052602260045260246000fd5b7f4e487b7100000000000000000000000000000000000000000000000000000000600052604160045260246000fd5b6000601f19601f8301169050919050565b7f4552433732313a207472616e7366657220746f206e6f6e20455243373231526560008201527f63656976657220696d706c656d656e7465720000000000000000000000000000602082015250565b7f4f776e61626c653a206e6577206f776e657220697320746865207a65726f206160008201527f6464726573730000000000000000000000000000000000000000000000000000602082015250565b7f4552433732313a20746f6b656e20616c7265616479206d696e74656400000000600082015250565b7f4552433732313a207472616e7366657220746f20746865207a65726f2061646460008201527f7265737300000000000000000000000000000000000000000000000000000000602082015250565b7f4552433732313a20617070726f766520746f2063616c6c657200000000000000600082015250565b7f416c726561647920726567697374657265640000000000000000000000000000600082015250565b7f4552433732313a206f70657261746f7220717565727920666f72206e6f6e657860008201527f697374656e7420746f6b656e0000000000000000000000000000000000000000602082015250565b7f5072696365206d75737420626520686967686572206f7220657175616c203000600082015250565b7f4552433732313a20617070726f76652063616c6c6572206973206e6f74206f7760008201527f6e6572206e6f7220617070726f76656420666f7220616c6c0000000000000000602082015250565b7f416c726561647920736574207570210000000000000000000000000000000000600082015250565b7f4552433732313a2062616c616e636520717565727920666f7220746865207a6560008201527f726f206164647265737300000000000000000000000000000000000000000000602082015250565b7f4552433732313a206f776e657220717565727920666f72206e6f6e657869737460008201527f656e7420746f6b656e0000000000000000000000000000000000000000000000602082015250565b7f45524337323155524953746f726167653a2055524920736574206f66206e6f6e60008201527f6578697374656e7420746f6b656e000000000000000000000000000000000000602082015250565b7f4552433732313a206d696e7420746f20746865207a65726f2061646472657373600082015250565b7f45524337323155524953746f726167653a2055524920717565727920666f722060008201527f6e6f6e6578697374656e7420746f6b656e000000000000000000000000000000602082015250565b7f4552433732313a20617070726f76656420717565727920666f72206e6f6e657860008201527f697374656e7420746f6b656e0000000000000000000000000000000000000000602082015250565b7f4f776e61626c653a2063616c6c6572206973206e6f7420746865206f776e6572600082015250565b7f4552433732313a207472616e73666572206f6620746f6b656e2074686174206960008201527f73206e6f74206f776e0000000000000000000000000000000000000000000000602082015250565b7f4552433732314d657461646174613a2055524920717565727920666f72206e6f60008201527f6e6578697374656e7420746f6b656e0000000000000000000000000000000000602082015250565b7f4552433732313a20617070726f76616c20746f2063757272656e74206f776e6560008201527f7200000000000000000000000000000000000000000000000000000000000000602082015250565b7f4552433732313a207472616e736665722063616c6c6572206973206e6f74206f60008201527f776e6572206e6f7220617070726f766564000000000000000000000000000000602082015250565b61385f81613085565b811461386a57600080fd5b50565b61387681613097565b811461388157600080fd5b50565b61388d816130a3565b811461389857600080fd5b50565b6138a4816130ef565b81146138af57600080fd5b5056fea2646970667358221220711d07192ef333a507a63c90ad6681c289e4f09fd9e360fc7112e3059f5d183164736f6c63430008040033",
  "immutableReferences": {},
  "source": "// SPDX-Licence-Identifier: MIT\r\npragma solidity 0.8.4;\r\n\r\nimport \"@openzeppelin/contracts/token/ERC721/extensions/ERC721URIStorage.sol\";\r\nimport \"@openzeppelin/contracts/token/ERC721/ERC721.sol\";\r\nimport '@openzeppelin/contracts/access/Ownable.sol';\r\nimport '@openzeppelin/contracts/utils/math/SafeMath.sol';\r\nimport \"@openzeppelin/contracts/utils/Counters.sol\";\r\n\r\n/// @title NFT Contract\r\n/// @dev This contract manages everything related to NFT\r\n\r\ncontract NftContract is ERC721URIStorage, Ownable {\r\n  \r\n  //declare library stuff\r\n  using Counters for Counters.Counter;\r\n  using SafeMath for uint256;\r\n\r\n  address private marketplace;\r\n  Counters.Counter public nftId;\r\n\r\n //ajout du propirtaire\r\n  struct NFTInfo {\r\n    string tokenURI;\r\n    uint256 price;\r\n    address owner;\r\n    bool isForSale;\r\n  }\r\n\r\n  mapping(string => bool) public ipfsHashes;\r\n  mapping(uint => NFTInfo) public NFTS;\r\n\r\n  /**\r\n    *@dev Emitted when NFT is minted.\r\n  **/\r\n    event NFTCreated(\r\n        address owner,\r\n        uint256 tokenId,\r\n        uint256 price,\r\n        string tokenURI\r\n    ); \r\n\r\n    //modifier only owner of the NFT\r\n\r\n     /** \r\n     * @dev Initializes the contract by setting a `name`, a `symbol` and the `marketplace` address that will manage the token collection.\r\n     * @param _name - token collection name\r\n     * @param _symbol - token collection symbol\r\n     * @param _marketplace - token collection address\r\n     */\r\n    constructor (string memory _name, string memory _symbol, address _marketplace) ERC721(_name, _symbol) {\r\n        require(_marketplace != address(0));\r\n        marketplace = _marketplace;\r\n    }\r\n\r\n    /** \r\n     * @dev Set a NFT price \r\n     * @param _nftId - NFT id\r\n     * @param _amount - NFT price\r\n     */\r\n    function setPrice(uint256 _nftId, uint256 _amount) external {\r\n        require(_amount >= 0, \"Price must be higher or equal 0\");\r\n        NFTInfo storage token = NFTS[_nftId];\r\n        token.price = _amount;\r\n    }\r\n    \r\n    /** \r\n     * @dev Update status NFT on sale\r\n     * @param _nftId - NFT id\r\n     * @param _status - NFT status (isForSale)\r\n     */\r\n    function updateOnSale(uint256 _nftId, bool _status) external {\r\n        require(NFTS[_nftId].isForSale == !_status, \"Already set up!\");\r\n        NFTInfo storage token = NFTS[_nftId];\r\n        token.isForSale = _status;\r\n    }\r\n\r\n    /** \r\n     * @dev Mint a new NFT  \r\n     * @param _tokenURI - URL include ipfs hash\r\n     * @param _priceBase - nft initial price\r\n     * @return tokenId - NFT id, tokenURI ipfs hash\r\n     */\r\n    function mintNFT(string memory _tokenURI, uint256 _priceBase) public returns (uint256 tokenId, string memory tokenURI) {\r\n        require(ipfsHashes[_tokenURI] != true, \"Already registered\");  \r\n        //increment id\r\n        nftId.increment();\r\n       \r\n        uint256 newItemId = nftId.current();\r\n        \r\n        _safeMint(msg.sender, newItemId);\r\n        _setTokenURI(newItemId, _tokenURI);\r\n        \r\n        ipfsHashes[_tokenURI] = true;\r\n        \r\n        NFTS[newItemId] = NFTInfo(\r\n            _tokenURI,\r\n            _priceBase,\r\n            msg.sender,\r\n            true\r\n        );\r\n        emit NFTCreated(msg.sender, newItemId, _priceBase, _tokenURI);\r\n        return (newItemId, _tokenURI);\r\n    }\r\n    \r\n\r\n    /** \r\n     * @dev Get a NFT price\r\n     * @param _assetId - NFT id\r\n     * @return price - return nft price \r\n     */\r\n    function getPrice(uint256 _assetId) public view returns(uint256 price) {\r\n        return NFTS[_assetId].price; \r\n    }\r\n\r\n    /** \r\n     * @dev Get a status NFT on sale \r\n     * @param _assetId - NFT id\r\n     * @return isForSale - true if nft is for sale or false if nft is out of sale\r\n     */\r\n    function getOnSale(uint256 _assetId) public view returns(bool isForSale) {\r\n        return NFTS[_assetId].isForSale; \r\n    }\r\n\r\n}\r\n",
  "sourcePath": "D:/work/udemy/marketplaceNFT/contracts/NFTContract.sol",
  "compiler": {
    "name": "solc",
    "version": "0.8.4+commit.c7e474f2.Emscripten.clang"
  },
  "schemaVersion": "3.4.1",
  "updatedAt": "2021-05-11T12:41:02.518Z",
  "devdoc": {
    "details": "This contract manages everything related to NFT",
    "events": {
      "NFTCreated(address,uint256,uint256,string)": {
        "details": "Emitted when NFT is minted.*"
      }
    },
    "kind": "dev",
    "methods": {
      "approve(address,uint256)": {
        "details": "See {IERC721-approve}."
      },
      "balanceOf(address)": {
        "details": "See {IERC721-balanceOf}."
      },
      "constructor": {
        "details": "Initializes the contract by setting a `name`, a `symbol` and the `marketplace` address that will manage the token collection.",
        "params": {
          "_marketplace": "- token collection address",
          "_name": "- token collection name",
          "_symbol": "- token collection symbol"
        }
      },
      "getApproved(uint256)": {
        "details": "See {IERC721-getApproved}."
      },
      "getOnSale(uint256)": {
        "details": "Get a status NFT on sale ",
        "params": {
          "_assetId": "- NFT id"
        },
        "returns": {
          "isForSale": "- true if nft is for sale or false if nft is out of sale"
        }
      },
      "getPrice(uint256)": {
        "details": "Get a NFT price",
        "params": {
          "_assetId": "- NFT id"
        },
        "returns": {
          "price": "- return nft price "
        }
      },
      "isApprovedForAll(address,address)": {
        "details": "See {IERC721-isApprovedForAll}."
      },
      "mintNFT(string,uint256)": {
        "details": "Mint a new NFT  ",
        "params": {
          "_priceBase": "- nft initial price",
          "_tokenURI": "- URL include ipfs hash"
        },
        "returns": {
          "tokenId": "- NFT id, tokenURI ipfs hash"
        }
      },
      "name()": {
        "details": "See {IERC721Metadata-name}."
      },
      "owner()": {
        "details": "Returns the address of the current owner."
      },
      "ownerOf(uint256)": {
        "details": "See {IERC721-ownerOf}."
      },
      "renounceOwnership()": {
        "details": "Leaves the contract without owner. It will not be possible to call `onlyOwner` functions anymore. Can only be called by the current owner. NOTE: Renouncing ownership will leave the contract without an owner, thereby removing any functionality that is only available to the owner."
      },
      "safeTransferFrom(address,address,uint256)": {
        "details": "See {IERC721-safeTransferFrom}."
      },
      "safeTransferFrom(address,address,uint256,bytes)": {
        "details": "See {IERC721-safeTransferFrom}."
      },
      "setApprovalForAll(address,bool)": {
        "details": "See {IERC721-setApprovalForAll}."
      },
      "setPrice(uint256,uint256)": {
        "details": "Set a NFT price ",
        "params": {
          "_amount": "- NFT price",
          "_nftId": "- NFT id"
        }
      },
      "supportsInterface(bytes4)": {
        "details": "See {IERC165-supportsInterface}."
      },
      "symbol()": {
        "details": "See {IERC721Metadata-symbol}."
      },
      "tokenURI(uint256)": {
        "details": "See {IERC721Metadata-tokenURI}."
      },
      "transferFrom(address,address,uint256)": {
        "details": "See {IERC721-transferFrom}."
      },
      "transferOwnership(address)": {
        "details": "Transfers ownership of the contract to a new account (`newOwner`). Can only be called by the current owner."
      },
      "updateOnSale(uint256,bool)": {
        "details": "Update status NFT on sale",
        "params": {
          "_nftId": "- NFT id",
          "_status": "- NFT status (isForSale)"
        }
      }
    },
    "title": "NFT Contract",
    "version": 1
  },
  "userdoc": {
    "kind": "user",
    "methods": {},
    "version": 1
  }
}